:020000040800F2
:1000000000580020550200084545000847450008F3
:100010004B4500084F45000853450008000000000C
:100020000000000000000000000000009D0100082A
:100030005745000800000000F10100089D1000086D
:100040006F0200086F0200086F0200086F020008CC
:100050006F0200086F0200086F0200086F020008BC
:100060006F0200086F0200086F0200086F020008AC
:100070006F0200086F0200086F0200086F0200089C
:100080006F0200086F0200086F0200086F0200088C
:100090006F0200086F0200086F0200086F0200087C
:1000A0006F0200086F0200086F0200086F0200086C
:1000B0006F0200086F0200086F0200086F0200085C
:1000C0006F0200086F0200086F0200086F0200084C
:1000D0006F0200086F0200086F0200086F0200083C
:1000E0006F0200086F0200086F0200086F0200082C
:1000F0006F0200086F0200086F0200086F0200081C
:100100006F0200086F0200086F0200086F0200080B
:100110006F0200086F0200086F0200086F020008FB
:100120006F0200086F0200086F0200086F020008EB
:100130006F0200086F0200086F0200086F020008DB
:100140006F0200086F0200086F0200086F020008CB
:100150006F0200086F0200086F0200086F020008BB
:100160006F0200086F0200086F0200086F020008AB
:100170006F0200086F0200086F0200086F0200089B
:100180006F0200086F020008DFF80CD004F032FDA7
:1001900000480047B5440008005800202A4B196861
:1001A0000868B0E8F04F80F30988BFF36F8F4FF015
:1001B000000080F3118870470000000006480068C6
:1001C000006880F3088862B661B6BFF34F8FBFF353
:1001D0006F8F00DF00BF00BF08ED00E0DFF80C000C
:1001E000016841F470010160704700BF88ED00E0D4
:1001F000EFF30980BFF36F8F134B1A681EF0100FD7
:1002000008BF20ED108A20E9F04F106008B44FF0CD
:10021000500080F31188BFF34F8FBFF36F8F02F050
:1002200076FB4FF0000080F3118808BC196808685D
:10023000B0E8F04F1EF0100F08BFB0EC108A80F34A
:100240000988BFF36F8F704714000020EFF305801B
:10025000704700000648804706480047FEE7FEE773
:10026000FEE7FEE7FEE7FEE7FEE7FEE7FEE7FEE766
:10027000354600088901000832490143324A1160BD
:10028000704770B5002100230F22C4781CB32E4C98
:10029000246804F4E064C4F5E064C4F30721C1F108
:1002A0000404E3B20A4144789C40E1B284781440EB
:1002B00021430C07210E254C05786155047804F084
:1002C0001F050124AC4005786D11AD0005F1E02556
:1002D000C5F8004109E0047804F01F050124AC4092
:1002E0001B4D0678761145F8264070BD194A0A4024
:1002F0000243154B1B1F1A60704739B1124A121D79
:1003000012680243104B1B1D1A6006E00E4A121DB4
:10031000126882430C4B1B1D1A607047042808D1D9
:100320004FF0E021096941F004014FF0E022116132
:1003300007E04FF0E021096921F004014FF0E022CD
:10034000116170470000FA050CED00E000E400E0E8
:1003500080E100E080FFFF1F10B50446984884420A
:1003600008D10121084600F086FB0021012000F0A1
:1003700082FB76E09348844208D10121022000F0FC
:100380007AFB0021022000F076FB6AE08E4884426E
:1003900008D10121042000F06EFB0021042000F0B0
:1003A0006AFB5EE08948844208D10121082000F000
:1003B00062FB0021082000F05EFB52E0844884428A
:1003C00008D10121102000F056FB0021102000F080
:1003D00052FB46E07F48844208D10121202000F0F2
:1003E0004AFB0021202000F046FB3AE07A48844294
:1003F00008D10121402000F03EFB0021402000F008
:100400003AFB2EE07548844208D10121802000F09B
:1004100032FB0021802000F02EFB22E07048844255
:1004200008D10121801500F026FB0021A01500F065
:1004300022FB16E06B48844208D10121401500F0F0
:100440001AFB0021601500F016FB0AE066488442A2
:1004500007D10121001500F00EFB0021201500F04E
:100460000AFB10BDF0B50A4600210023002400BF9E
:100470003DE0012505FA01F3156805EA03049C42F5
:1004800034D105684F000326BE40B5430560157999
:100490004E00B5400668354305601579012D02D040
:1004A0001579022D16D185684F000326BE40B5434D
:1004B000856055794E00B54086683543856045684E
:1004C00001268E40B5434560456896798E40B6B2A8
:1004D00035434560C5684F000326BE40B543C5603F
:1004E000D5794E00B540C6683543C560491C102912
:1004F000BFD3F0BD4FF6FF71016000210171417162
:100500008171C171704708B54FF480320092009A32
:100510000A430092009AC261C161009AC261C26935
:100520000092C269009208BD0246002013690B4088
:100530000BB1012000E0002070470146086980B23D
:1005400070470246002053690B400BB1012000E0C8
:10055000002070470146486980B2704701837047A8
:10056000418370470AB1018300E0418370474161D4
:10057000704742694A4042617047F0B50023002449
:100580004D07ED0E02FA05F3CE1000F1200555F8E7
:1005900026504E07F70E0F26BE40B543CF1000F190
:1005A000200646F82750CE1000F1200555F82650B9
:1005B00045EA0304CE1000F1200545F82640F0BDC1
:1005C000000002400004024000080240000C02400B
:1005D000001002400014024000180240001C0240BB
:1005E000002002400024024000280240F948006830
:1005F00040F00100F74908600020F6490831086022
:10060000F4480068F4490840F2490860F348091DBD
:100610000860F348EF4984310860F0481038091D3C
:100620000860EC48006820F48020EA490860002057
:10063000E8490C310860E7498C31086070470021B7
:10064000E44A921C117011460870704710B50146BB
:100650000022002300204A11012A02D1DD4C236828
:1006600008E0022A03D1DB4C7034236802E0D94C45
:100670007434236801F01F02012494401C400CB123
:10068000012000E0002010BD38B5002000900024BB
:10069000002500BF3120FFF7D9FF05460098401C18
:1006A00000900098B0F5A04F01D0002DF2D031207D
:1006B000FFF7CCFF08B1012400E00024204638BD3C
:1006C00001460020C34A106820F0F80040EAC1004B
:1006D00010607047C349086070470021BD4A7032FE
:1006E00011701170012802D004280AD104E0012100
:1006F000B84A7032117005E00521B64A70321170A7
:1007000000E000BF00BF7047B7490860704770B590
:10071000049C41EA82150126C6EB530645EA0645CC
:10072000054345EA0465AB4E361D356070BDAD49E5
:1007300008667047820142EA0172A64B84331A6050
:100740007047A8498866704710B5830143EA016382
:1007500043EA02739F4C8834236010BDA1490867A7
:100760007047A049C864704702460020994B08337F
:10077000186820F0EC6042EA01031843954B0833F7
:100780001860704702460020924B0833186820F02A
:10079000784042EA010318438E4B083318607047D3
:1007A000014600208B4A0832106820F003000843FD
:1007B0001060704787480830006800F00C007047F0
:1007C00001460020834A0832106820F0F0000843F8
:1007D00010607047014600207E4A0832106820F4FD
:1007E000E05008431060704701460020794A083203
:1007F000106820F4604040EAC10010607047F0B516
:10080000002100220024022500260223714F083710
:100810003F6807F00C0121B1042905D0082937D120
:1008200005E0724F076036E0714F076033E0694FB3
:100830003F1D3F68C7F38056664F3F1D3F6807F076
:100840003F036EB16A4FB7FBF3F7DFF888C10CF1D5
:10085000040CDCF800C0CCF3881C07FB0CF40CE0A3
:10086000624FB7FBF3F7DFF86CC10CF1040CDCF856
:1008700000C0CCF3881C07FB0CF4564F3F1D3F68AB
:10088000C7F301477F1C7D00B4FBF5F7076002E06A
:10089000564F076000BF00BF4E4F08373F6807F054
:1008A000F0010909534F7A5C0768D7404760494F08
:1008B00008373F6807F4E051890A4E4F7A5C476871
:1008C000D7408760434F08373F6807F46041490BC2
:1008D000484F7A5C4768D740C760F0BD002100F4FC
:1008E0004072B2F5407F0AD13A4A0832116821F4C9
:1008F000F811414A02401143364A08321160354A24
:1009000070321268C0F30B031A43324B70331A6013
:1009100070473549443908607047334940390860A9
:10092000704736490860704701460020294A8C32DA
:10093000106820F01F004A1E1043264A8C321060B7
:10094000704701460020234A8C32106820F4F8508A
:100950004A1E40EA02201F4A8C321060704701464E
:1009600000201C4A8C32106820F4401008431060AC
:10097000704701460020174A8C32106820F440006E
:1009800008431060704701460020124A8C321068FC
:1009900020F44030084310607047194908607047E0
:1009A00039B10C4A3032126802430A4B30331A60B4
:1009B00006E0084A303212688243064B30331A6030
:1009C0007047F9B1034A343212680243014B3433A1
:1009D0001A601CE000380240FFFFF6EA10300024E5
:1009E0000030002000004742800E47420024F400FF
:1009F00000127A0000000020FFFCFF0F5C0147425C
:100A0000E01147428F4A126882438E4B1A6070474A
:100A100039B18C4A121D126802438A4B1B1D1A60A1
:100A200006E0884A121D12688243864B1B1D1A601D
:100A3000704739B1834A0C3212680243814B0C3340
:100A40001A6006E07F4A0C32126882437D4B0C33F9
:100A50001A60704739B17B4A103212680243794BF1
:100A600010331A6006E0774A103212688243754BE1
:100A700010331A60704739B1724A243A126802433F
:100A8000704B243B1A6006E06E4A243A1268824397
:100A90006C4B243B1A60704739B16A4A203A12689D
:100AA0000243684B203B1A6006E0664A203A12680F
:100AB0008243644B203B1A60704739B1614A1C3A4B
:100AC000126802435F4B1C3B1A6006E05D4A1C3A09
:100AD000126882435B4B1C3B1A60704739B1594A1C
:100AE000143A12680243574B143B1A6006E0554A09
:100AF000143A12688243534B143B1A60704739B161
:100B0000504A103A126802434E4B103B1A6006E0FE
:100B10004C4A103A126882434A4B103B1A607047A5
:100B200039B1484A1C3212680243464B1C331A60E2
:100B300006E0444A1C3212688243424B1C331A605E
:100B4000704739B13F4A2032126802433D4B20338F
:100B50001A6006E03B4A203212688243394B203348
:100B60001A60704739B1374A243212680243354B54
:100B700024331A6006E0334A243212688243314B30
:100B800024331A60704739B12E4A2C32126802435E
:100B90002C4B2C331A6006E02A4A2C32126882430E
:100BA000284B2C331A60704739B1264A303212680C
:100BB0000243244B30331A6006E0224A3032126876
:100BC0008243204B30331A607047012808D11D49F9
:100BD0003C31096841F008011A4A3C32116007E0D3
:100BE00018493C31096821F00801164A3C3211606D
:100BF000704739B1134A273A12780243114B273B09
:100C00001A7006E00F4A273A127882430D4B273BB1
:100C10001A7070470B484030006840F080700949F6
:100C200040310860704701460020064A283A1268A1
:100C30000A400AB1012000E000207047014926392E
:100C4000087070473438024010B50446FA488442B0
:100C500008D101211020FFF752FF00211020FFF7DB
:100C60004EFF57E0F548844209D101214804FFF7BF
:100C700035FF00214FF40030FFF730FF4AE0F04825
:100C8000844209D101218804FFF728FF00214FF495
:100C90008020FFF723FF3DE0EA48844209D101218B
:100CA000C804FFF71BFF00214FF40020FFF716FFD9
:100CB00030E0E548844209D101210805FFF70EFF25
:100CC00000214FF48010FFF709FF23E0DF48844242
:100CD00008D101212020FFF712FF00212020FFF77B
:100CE0000EFF17E0DA48844209D101218807FFF797
:100CF000F5FE00214FF08040FFF7F0FE0AE0D548F6
:100D0000844207D101214005FFF7E8FE002160057C
:100D1000FFF7E4FE10BD2DE9FF4705460E4600240F
:100D2000A14600BFA046B08900B100BF2C8A24F4C0
:100D30004054F08804432C82AC8941F20C60844317
:100D4000B08831890843718908430443AC81AC8A77
:100D500024F44074B0890443AC826846FFF74FFD29
:100D6000B548854202D0B948854202D1DDF80C90E1
:100D700001E0DDF80890A88900F4004040B109EBDB
:100D8000C90000EB091031684900B0FBF1F707E03A
:100D900009EBC90000EB091031688900B0FBF1F7DD
:100DA0006420B7FBF0F004012009642101FB1078F6
:100DB000A88900F4004040B1322000EBC800B0FB2D
:100DC000F1F000F00700044308E0322000EB0810C7
:100DD0006421B0FBF1F000F00F0004432C81BDE86A
:100DE000FF874FF41651016000218180C18001818D
:100DF0000C21418100218181704710B502460020FD
:100E0000108A20F470600B884C8823438C8823431D
:100E1000CC8823431843108210BD002101804180FB
:100E20008180C180704721B1828942F40052828161
:100E300004E082894DF6FF731A4082817047028B6D
:100E400002F47F420283028B0A430283704721B17E
:100E5000828942F40042828103E08289C2F30E0259
:100E60008281704721B1828A42F40062828204E06A
:100E7000828A4FF2FF731A4082827047C1F30802E0
:100E80008280704701468888C0F308007047028A54
:100E90004FF6F0731A400282028A0A4302827047B8
:100EA00021B1828942F00202828104E082894FF6F8
:100EB000FD731A408281704782894FF2FF731A4096
:100EC000828182890A4382817047028A4FF6DF73EA
:100ED0001A400282028A0A430282704721B1028AC2
:100EE00042F48042028204E0028A4BF6FF731A4009
:100EF00002827047818941F001018181704721B1EF
:100F0000828A42F00802828204E0828A4FF6F773F6
:100F10001A4082827047028BD2B20283028B42EA6D
:100F200001220283704721B1828A42F0200282822C
:100F300004E0828A4FF6DF731A408282704721B143
:100F4000828A42F01002828204E0828A4FF6EF73B6
:100F50001A4082827047828A4FF6FB731A4082825F
:100F6000828A0A438282704721B1828A42F0020259
:100F7000828204E0828A4FF6FD731A4082827047B3
:100F80001AB1838A0B43838202E0838A8B43838274
:100F90007047F0B50346002400260025002040F6E7
:100FA0006A17B94200D100BF1846C1F3421401F0DC
:100FB0001F06012707FA06F5012C01D10C3004E0C9
:100FC000022C01D1103000E014301AB107682F4311
:100FD000076002E00768AF430760F0BD02460020EB
:100FE000B1F5007F00D100BF13880B400BB1012089
:100FF00000E00020704701F40072B2F5007F00D1DC
:1010000000BFCA430280704770B502460024002327
:101010000025002040F66A16B14200D100BFC1F39E
:10102000421501F01F03012606FA03F3012D13D127
:101030009689334017E00000001001400044004052
:1010400000480040004C00400050004000140140A7
:1010500000780040007C0040022D02D1168A334007
:1010600001E0968A33400C12012606FA04F4168831
:10107000344013B10CB1012000E0002070BD10B568
:101080000022002340F66A14A14200D100BF0A12D8
:1010900001249440A3B2DC43048010BD10B502F0DB
:1010A0006AF8012801D003F04BF910BD70B5044671
:1010B0000420FFF733F93248047025464FF47A7064
:1010C000454301202F4908804FF0E020006940F09F
:1010D00002004FF0E021086108464561006940F0D8
:1010E0000100086170BD70B5034600224FF0E02694
:1010F0007569234E367803FB06F44FF0E026B1699C
:1011000010E04FF0E026B06988420BD0884202D24E
:101110000E1A324402E02E1A0E4432440146A24214
:1011200000D300E0EDE700BF70BD70B5044602F0EB
:1011300022F8012810D013480088844206D31148B1
:101140000088B4FBF0F5284601F0B8FA0D48008895
:10115000B4FBF0F100FB11444FF47A7104FB01F091
:10116000FFF7C1FF70BD30B50446002504E04FF421
:101170007A70FFF7B8FF6D1CA542F8D330BD0000B0
:10118000100000201200002010B586B00446012196
:101190000846FFF705FC01211020FFF75BFC00204B
:1011A0008DF8160001208DF8170002208DF815002B
:1011B0008DF814000002049004A92548FFF752F9A5
:1011C00002208DF814004002049004A92048FFF783
:1011D00049F907220A211E48FFF7CFF90722092102
:1011E0001B48FFF7CAF900940020ADF80400ADF8E1
:1011F0000600ADF80800ADF80C000C20ADF80A00B0
:1012000069461448FFF787FD01211248FFF70BFEDE
:1012100006B010BD70B504460D46E1B20D48FFF7AB
:101220002DFE00BF80210B48FFF7D8FE0028F9D023
:10123000204670BD10B5044600BF20210548FFF7C9
:10124000CDFE0028F9D00348FFF71CFE10BD0000BA
:1012500000000240001001401CB501210220FFF7F0
:101260009FFB012000908DF8040000208DF80600FF
:1012700003208DF8050001208DF807006946044819
:10128000FFF7F0F801210248FFF768F91CBD0000E4
:101290000004024000F1080141604FF0FF3181601D
:1012A00000F10801C1600161002101607047002167
:1012B0000161704742684A6093688B609368596027
:1012C0009160086103685B1C0360704710B50246BB
:1012D0000B685C1C0CB9106907E002F1080000E023
:1012E0004068446824689C42FAD944684C604C6861
:1012F000A160886041600A611468641C146010BDBC
:1013000001460A69D1E901309860D1E901035860CA
:101310005068884201D188685060002008611068D8
:10132000401E10601068704770B505460E462C468A
:101330002CB940F21B12FAA1FEA003F0FBFC02F054
:10134000C4FFD4E90F12206801FB02006060002096
:10135000A0632068A060E06B401E226C216800FB47
:101360000210E060FF2084F8440084F845009EB934
:10137000206908B9012000E00020A8B904F110009C
:1013800001F0F9FD80B14FF08050EE490860BFF3E5
:101390004F8FBFF36F8F07E004F11000FFF77AFF64
:1013A00004F12400FFF776FF02F0B2FF012070BDC8
:1013B0002DE9F04106460D4617469846069C0DB9A4
:1013C000246000E02760E663256401212046FFF7E2
:1013D000ABFF84F850800020A064BDE8F0812DE9C7
:1013E000F84305460E4690460DB1012000E000206E
:1013F00028B94FF4C472CAA1CEA003F09BFC0EB969
:10140000002701E005FB06F707F1540002F0A3FDF9
:10141000044644B104F1540943464A46314628463D
:101420000094FFF7C5FF2046BDE8F8832DE9F041A1
:1014300004460F4615464FF00008A66B206C40B9D5
:10144000206860BB606801F0F4FE804600206060A8
:1014500025E07DB93946226CA06803F085F9216C3E
:10146000A0680844A060D4E90110884217D320681E
:10147000A06014E03946226CE06803F075F9216C35
:10148000E068401AE0602168E068884203D2216C7D
:101490006068401AE060022D01D106B1761E701C12
:1014A000A0634046BDE8F0812DE9F3410D46009868
:1014B000846C00272CB940F6CE1299A19DA003F0B0
:1014C00039FCA06BE16B884201D2012000E00020D2
:1014D00028B940F6CF1292A196A003F02BFCA06B86
:1014E000E16B88421BD294F945602A466946204642
:1014F000FFF79CFF0746701C60B9606A08B90120BD
:1015000000E0002050B904F1240001F034FD28B1BE
:10151000012703E0701C40B284F8450000BF384644
:10152000BDE8FC8170B5044602F0CFFE94F9455049
:101530001AE0A06C38B100212046FFF7B5FF88B152
:1015400001F0EDFD0EE0606A08B9012000E0002026
:1015500038B904F1240001F00EFD18B101F0DFFDEF
:1015600000E003E0681E45B2002DE2DC00BFFF2072
:1015700084F8450002F0CCFE02F0A7FE94F9445036
:1015800010E0206908B9012000E0002048B904F10A
:10159000100001F0F0FC08B101F0C1FD681E45B279
:1015A00000E001E0002DECDC00BFFF2084F84400E7
:1015B00002F0AEFE70BD70B5054602F086FEA86B67
:1015C000E96B884201D1012400E0002402F0A0FE72
:1015D000204670BD2DE9FF4383B0064688461D4670
:1015E0004FF0000934462CB940F2D9224CA151A049
:1015F00003F0A0FBB8F1000F01D1206C08B9012065
:1016000000E0002028B940F2DA2245A149A003F009
:1016100091FB022D02D1E06B012801D1012000E0F5
:10162000002028B940F2DB223DA142A003F082FB5A
:1016300001F0A1FD08B9059808B9012000E00020DB
:1016400028B940F2DE2236A13AA003F073FB00BFB6
:1016500002F03BFEA06BE16B884201D3022D38D132
:101660002A4641462046FFF7E1FE0746A06C68B1D6
:1016700029462046FFF718FF28B34FF08050314924
:101680000860BFF34F8FBFF36F8F1CE0606A08B92B
:10169000012000E0002068B904F1240001F06BFC97
:1016A00088B14FF0805027490860BFF34F8FBFF3D8
:1016B0006F8F08E03FB14FF0805022490860BFF3C0
:1016C0004F8FBFF36F8F02F023FE012007B0BDE8FC
:1016D000F083059818B902F01BFE0020F6E7B9F177
:1016E000000F04D101A801F0CAFC4FF0010902F07B
:1016F0000FFE00F082FF02F0E8FD94F94400401C68
:1017000010B9002084F8440094F94500401C10B939
:10171000002084F8450002F0FBFD05A901A813E0B4
:101720002E2E5C4672656552544F535C717565751B
:10173000652E63004572726F723A25732C25640D15
:101740000A00000004ED00E001F0ABFCF8B920460F
:10175000FFF731FFA8B104F11000059901F0ADFBCE
:101760002046FFF7DFFE00F09DFE00287FF470AFFB
:101770004FF08050FA490860BFF34F8FBFF36F8F6F
:1017800066E72046FFF7CEFE00F08CFE60E72046BD
:10179000FFF7C8FE00F086FE002097E710B504466C
:1017A0004CB1002060602060E06000231A461946BA
:1017B0002046FFF70FFF10BD2DE9F041044601263A
:1017C0000027224600210120FFF709FE0546284692
:1017D000FFF7E4FF2846BDE8F08170B506463446C1
:1017E0003CB940F24122AFF2C801AFF2B80003F0B9
:1017F000A1FA01F0BDFC616888420CD1E068401E8E
:10180000E060E06828B900231A4619462046FFF731
:10181000E1FE012500E00025284670BD70B50546B3
:1018200002F053FDA86B08B9012400E0002402F087
:101830006FFD204670BD70B504460D46206C70B13A
:10184000216CE0680844E0606168E068884201D388
:101850002068E0602846226CE16802F085FF70BDD8
:101860002DE9FF4782B005460E461F464FF0000A9D
:101870002C463CB940F2DC42AFF25C11AFF24C10A6
:1018800003F058FA0EB9206C08B9012000E00020DE
:1018900038B940F2DD42AFF27811AFF2681003F0D0
:1018A00049FA01F068FC08B9049808B9012000E081
:1018B000002038B94FF49C62AFF29C11AFF28C104B
:1018C00003F038FA00BF02F000FDD4F83890B9F107
:1018D000000F3DD0D4F80C8031462046FFF7ABFF17
:1018E000DFB9A9F10100A063206810B901F080FD03
:1018F0006060206908B9012000E0002010BB04F1FD
:10190000100001F038FBE8B14FF0805094490860B6
:10191000BFF34F8FBFF36F8F14E0C4F80C80606A81
:1019200008B9012000E0002060B904F1240001F0B2
:1019300022FB38B14FF0805089490860BFF34F8FC8
:10194000BFF36F8F02F0E4FC012006B0BDE8F08722
:10195000049818B902F0DCFC0020F6E7BAF1000F99
:1019600004D1684601F08BFB4FF0010A02F0D0FC75
:1019700000F043FE02F0A9FC94F94400401C10B9A9
:10198000002084F8440094F94500401C10B9002060
:1019900084F8450002F0BCFC04A9684601F081FB14
:1019A00040BB2046FFF73AFFF0B1206830B902F0A3
:1019B0008CFC606801F0EBFB02F0AAFC04F124004F
:1019C000049901F07AFA2046FFF7ACFD00F06AFDB9
:1019D00000287FF478AF4FF0805061490860BFF372
:1019E0004F8FBFF36F8F6EE72046FFF79BFD00F030
:1019F00059FD68E72046FFF795FD00F053FD2046AE
:101A0000FFF70CFF0028EED000209EE72DE9F04103
:101A100006460F4634463CB94FF41E72AFF2003111
:101A2000AFF2F02003F086F901F0A2FB6168884272
:101A300004D1E068401CE06001250AE000233A463A
:101A400019462046FFF70CFF054615B1E068401C1B
:101A5000E0602846BDE8F08170B505460E460DB140
:101A6000012000E0002038B940F2BD22AFF2503131
:101A7000AFF2403003F05EF9AE4201D8012000E041
:101A8000002038B940F2BE22AFF26C31AFF25C30C8
:101A900003F050F9022200212846FFF7A0FC04467B
:101AA00004B1A663204670BD2DE9F05F80468A46EA
:101AB00015461E4644463CB940F29F32AFF2A03173
:101AC000AFF2903003F036F9BAF1000F01D1206C7B
:101AD00008B9012000E0002038B94FF46872AFF275
:101AE000C031AFF2B03003F025F9022E02D1E06B25
:101AF000012801D1012000E0002038B940F2A132D4
:101B0000AFF2E431AFF2D43003F014F902F030FC5C
:101B100000BF5021EFF3118081F31188BFF34F8F85
:101B2000BFF36F8F00BF0746A06BE16B884201D304
:101B3000022E2ED194F945B0324651462046FFF789
:101B400075FC0BF10100E0B9A06C58B1314620469C
:101B5000FFF7AAFCD0B1CDB10120286016E000004B
:101B600004ED00E0606A08B9012000E0002068B9D7
:101B700004F1240001F0FFF940B13DB101202860DB
:101B800004E00BF1010040B284F845004FF0010978
:101B900001E04FF0000900BF87F3118800BF4846FD
:101BA000BDE8F09F2DE9F04707460D463C463CB99D
:101BB00040F23C42AFF29841AFF2884003F0BAF8ED
:101BC000206C08B9012000E0002038B94FF4886289
:101BD000AFF2B441AFF2A44003F0ACF8206808B90A
:101BE000606808B9012000E0002038B940F24542A1
:101BF000AFF2D441AFF2C44003F09CF802F0B8FB5E
:101C000000BF5021EFF3118081F31188BFF34F8F94
:101C1000BFF36F8F00BF0646D4F83890E06B48459D
:101C200029D994F945A009F10100A0630AF1010046
:101C3000C8B9A06C40B100212046FFF735FCB8B10F
:101C4000B5B10120286013E0606A08B9012000E006
:101C5000002068B904F1240001F08DF940B13DB1D4
:101C60000120286004E00AF1010040B284F8450038
:101C70004FF0010801E04FF0000800BF86F3118823
:101C800000BF4046BDE8F0872DE9F05F0646894673
:101C9000174634463CB94FF4B462AFF27C51AFF210
:101CA0006C5003F047F8B9F1000F01D1206C08B96E
:101CB000012000E0002038B940F2A152AFF2A0515B
:101CC000AFF2905003F036F802F052FB00BF502103
:101CD000EFF3118081F31188BFF34F8FBFF36F8F44
:101CE00000BF0546D4F838A0BAF1000F22D094F90D
:101CF00044B049462046FFF79EFDAAF10100A063CB
:101D00000BF1010070B9206908B9012000E0002042
:101D100068B904F1100001F02EF940B13FB1012083
:101D2000386004E00BF1010040B284F844004FF049
:101D3000010801E04FF0000800BF85F3118800BFE3
:101D40004046BDE8F09F2DE9F047064688463446F8
:101D50003CB940F2FC52AFF23861AFF2286002F0B9
:101D6000E9FFB8F1000F01D1206C08B9012000E0B3
:101D7000002038B940F2FD52AFF25C61AFF24C6026
:101D800002F0D8FF206C08B1012000E0002038B933
:101D900040F2FE52AFF27861AFF2686002F0CAFF23
:101DA00002F0E6FA00BF5021EFF3118081F31188B1
:101DB000BFF34F8FBFF36F8F00BF0546A06B48B1D5
:101DC000D4F80C9041462046FFF735FDC4F80C903E
:101DD000012700E0002700BF85F3118800BF3846C7
:101DE000BDE8F08770B504463CB940F22F62AFF20F
:101DF000D061AFF2C06002F09DFF02F066FAA56B01
:101E000002F086FA284670BD70B5044625463DB9F5
:101E100040F24162AFF2F861AFF2E86002F08AFF8F
:101E200002F053FAD5E90E10461A02F071FA304664
:101E300070BD70B504463CB940F25162AFF22071FA
:101E4000AFF2107002F076FFA56B284670BD014618
:101E500000200EE0764A02EBC00252688A4207D1A7
:101E60000022734B43F8302003EBC0035A6002E0BA
:101E7000401C0828EED300BF704770B504462546C5
:101E80003DB940F25D62AFF26871AFF2587002F096
:101E900051FF2846FFF7DBFF284602F0DFF870BD50
:101EA0000146C86C7047C1647047014691F8500004
:101EB000704770B505463DB940F29372AFF2A0711C
:101EC000AFF2907002F036FFA86B08B9012400E071
:101ED0000024204670BD70B504463CB940F2BA7289
:101EE000AFF2C471AFF2B47002F024FFA06BE16BEB
:101EF000884201D1012500E00025284670BD024638
:101F000000200BE04A4B53F8303033B9484B43F8CC
:101F1000301003EBC0035A6002E0401C0828F1D3E4
:101F200000BF70470246002000210AE0404B03EB4F
:101F3000C1035B68934203D13D4B53F8310002E08B
:101F4000491C0829F2D300BF70472DE9F04105462E
:101F50000E4617462C4602F0B8F994F94400401C8E
:101F600010B9002084F8440094F94500401C10B9D1
:101F7000002084F8450002F0CBF9A06B28B93A465E
:101F8000314604F1240000F0DBFF2046FFF7CAFAD7
:101F9000BDE8F08170B50446002204212046FFF719
:101FA0001EFA0546284670BD70B504460E4602F07E
:101FB0008CF9A06C08B1002505E0A06B08B10025E4
:101FC00001E0A664012502F0A3F9284670BD2DE9C1
:101FD000F04105460F462E46B06CB84201D00024B1
:101FE0000AE0B06B08B1002406E002F06EF90020B0
:101FF000B06402F08DF901242046BDE8F08138B5C7
:1020000005460C46002000900023224669462846DB
:10201000FFF726FC009838BD38B504460020009034
:10202000002269462046FFF72FFE009838BD0000C9
:10203000B000002010B5002407E004EB8401FB4A47
:1020400002EB8100FFF726F9641C202CF5D3F84839
:10205000FFF720F9F748FFF71DF9F748FFF71AF9DE
:10206000F648FFF717F9F648FFF714F9F048F54975
:102070000860F048F449086010BD10B5044602F04D
:1020800024F9F2480068401CF0490860F0480068F4
:1020900040B9EF4804600846006801280DD1FFF7F9
:1020A000C9FF0AE0EB48006838B9E9480068C06A2F
:1020B000E16A884201D8E6480460E7480068401CAD
:1020C000E549086008460068606494F82C10012017
:1020D0008840E24909680843E0490860E16A01EB89
:1020E0008101D24A02EB8100211DFFF7E3F802F0E3
:1020F0000FF9D848006868B1D5480068C06AE16A3D
:10210000884207D24FF08050D5490860BFF34F8F07
:10211000BFF36F8F10BD2DE9F05F82460F469046EA
:102120009B460A9E0C9C4FEA8801A522206B02F078
:102130002DFBA8F10100216B01EB800929F00709B3
:1021400009F0070008B9012000E0002028B940F29A
:102150002B32C4A1C8A002F0EDFD002507E0795D97
:1021600004F134004155785D00B902E06D1C102D7A
:10217000F5D300BF002143200155202E00D31F2698
:10218000E662E66400202065201DFFF790F804F168
:102190001800FFF78CF82461C6F12000A06164628A
:1021A0000020606584F858005A465146484601F0C0
:1021B000DAFF20600B9808B10B980460BDE8F09F2F
:1021C0002DE9FF4F85B0804689461746DDE912AB01
:1021D000B80001F0C0FE064656B15C2001F0BBFE1F
:1021E00004460CB1266304E0304601F037FF00E0FE
:1021F00000247CB10020CDE900ABCDE902403A4695
:1022000049464046089BFFF786FF2046FFF735FF0B
:10221000012501E04FF0FF35284609B0BDE8F08FF9
:1022200088490968096809B9012100E0002121B144
:102230004FF0FF31944A116006E082490968C9688D
:10224000C868914A41681160704710B50446206B18
:1022500001F004FF204601F001FF10BD70B50546F6
:1022600002F033F815B97A48006800E028460446C1
:10227000201DFFF745F878B9E06A00EB80006B4954
:1022800051F8200040B994F82C100120884073497F
:102290000968814371480160A06A18B104F118000F
:1022A000FFF72EF86C480068401C6B4908606848CE
:1022B0000068844209D1211D6048FEF7FBFF734886
:1022C0000068401C7149086009E060480068401ED1
:1022D0005E4908602046FFF7B8FFFFF7A1FF02F054
:1022E00017F85C480068C0B159480068844214D1AE
:1022F0006748006808B9012000E0002028B940F2D2
:10230000654258A15CA002F015FD4FF08050544981
:102310000860BFF34F8FBFF36F8F70BD2DE9F041A1
:102320004FF000085A480068002872D159480068E8
:10233000451C58480560EDB942480068006808B976
:10234000012000E0002028B940F6D91245A14AA09A
:1023500002F0F0FC3B4807683B48006839490860D8
:10236000394807604C480068401C4B490860FFF73B
:1023700057FF00BF4448006885423CD300BF314846
:102380000068006808B9012000E0002020B14FF08B
:10239000FF303D4908602DE02A480068C068C468E5
:1023A0006668B54202D23848066023E0201DFEF779
:1023B000A7FFA06A18B104F11800FEF7A1FF94F876
:1023C0002C100120884025490968084323490860EA
:1023D000E16A01EB8101154A02EB8100211DFEF744
:1023E00069FF1B49E06A0968C96A8842C7D34FF090
:1023F0000108C4E700BF16480068C06A00EB80000F
:102400000A4951F82000012801D94FF0010805E0E0
:10241000FFE722480068401C204908602048006807
:1024200008B14FF001084046BDE8F081F0000020FF
:10243000700300208403002098030020AC030020D8
:10244000C0030020180000201C00002024000020F1
:102450001400002030000020400000202C0000204C
:1024600004ED00E02E2E5C4672656552544F535CBD
:102470007461736B732E63004572726F723A2573C9
:102480002C25640D0A0000004400002020000020DC
:102490004C000020280000203C00002034000020D8
:1024A0003800002070B500240026FE48006838B9C6
:1024B0004FF4FD62AFF25401AFF2440002F03AFC77
:1024C00001F003FFF7480068401EF649086008461F
:1024D000006800284FD1F448006800284BD024E061
:1024E000F248C068C46804F11800FEF709FF201D17
:1024F000FEF706FF94F82C1001208840EC4909688B
:102500000843EB490860E16A01EB8101E94A02EB0B
:102510008100211DFEF7CEFEE749E06A0968C96A1D
:10252000884202D30120E5490860E048006808B904
:10253000012000E000200028D2D00CB1FFF770FE8F
:10254000DF48056865B100BFFFF7E8FE10B1012064
:10255000DA4908606D1E002DF6D10020D8490860C8
:10256000D648006838B101263007D6490860BFF365
:102570004F8FBFF36F8F01F0CBFE304670BD2DE95A
:10258000F04105460E46D0480768CB480068001D5C
:10259000FEF7B6FE50B9C848006890F82C1001202C
:1025A0008840C34909688143C1480160681C38B943
:1025B00036B1C1480168091DC448FEF77BFE1AE028
:1025C0007C19BD4800684460BC4207D2BA48016823
:1025D000091DBF480068FEF779FE0CE0B6480168A7
:1025E000091DBC480068FEF771FEBB4800688442C4
:1025F00001D2B9480460BDE8F081AA480068401CD7
:10260000A849086070472DE9F04704460F464FF08F
:1026100000093CB940F27942AFF2B811AFF2A8100C
:1026200002F088FB0FB1012000E0002038B940F231
:102630007A42AFF2D011AFF2C01002F07BFB9948A2
:10264000006808B9012000E0002038B940F27B4260
:10265000AFF2F011AFF2E01002F06CFBFFF7CDFF2C
:10266000994806682068C5192068B04207D92068D3
:10267000A8420BD9B54209D94FF0010906E02068FC
:10268000A84201D8B54201D94FF001092560B9F13E
:10269000000F03D0A81B0021FFF771FFFFF702FF17
:1026A0008046B8F1000F07D14FF08050854908608F
:1026B000BFF34F8FBFF36F8FBDE8F08770B504464F
:1026C0000025BCB17748006808B9012000E000206F
:1026D00038B940F2CF42AFF27421AFF2642002F079
:1026E00029FBFFF78AFF00212046FFF748FFFFF78D
:1026F000D9FE05463DB94FF0805072490860BFF3DE
:102700004F8FBFF36F8F70BD2DE9F04107463E46F6
:102710003EB940F2FB42AFF2B421AFF2A42002F086
:1027200009FB65480068864201D100241EE001F0E3
:10273000CCFD756901F0ECFD66480068854203D068
:1027400063480068854201D102240FE05F4885425A
:1027500005D1B06A08B9032408E0022406E05F4806
:10276000854200D00DB9042400E001242046BDE8D4
:10277000F08170B5044601F0A8FD14B94E48006818
:1027800000E020460646F56A01F0C2FD284670BD0D
:102790002DE9F041054601F0EBFD00BF5021EFF3BC
:1027A000118081F31188BFF34F8FBFF36F8F00BF8C
:1027B000044615B94048006800E028460746FE6A0E
:1027C00000BF84F3118800BF3046BDE8F0812DE9D9
:1027D000F04780460D464FF00009202D01D2012020
:1027E00000E0002038B94FF4B062AFF28831AFF2A8
:1027F000783002F09FFA202D00D31F2501F065FDEF
:10280000B8F1000F02D12C48006800E040460446B1
:10281000E66CAE4277D0B5420BD9274800688442B7
:102820000DD025480068C06AA84208D84FF00109B9
:1028300005E021480068844201D14FF00109E76AB0
:10284000E16AE06C884200D1E562E564A06900F0CD
:10285000004010B9C5F12000A06107EB8701154ABF
:1028600002EB81016069884201D1012000E0002073
:10287000B0B3201DFEF744FD30B90120B8400C492B
:10288000096881430A48016094F82C1001208840AF
:1028900007490968084306490860E16A01EB8101BC
:1028A000044A1FE04C000020240000209803002070
:1028B0002C000020F0000020140000203800002030
:1028C0003400002004ED00E028000020C0030020B8
:1028D0001C0000201800002044000020AC03002051
:1028E00005E010E002EB8100211DFEF7E3FCB9F1E9
:1028F000000F07D04FF08050FB490860BFF34F8FA7
:10290000BFF36F8F00BF01F003FDBDE8F08710B586
:10291000F648006818B10120F54908602FE0002052
:10292000F3490860F3480068B0FA80F0C0F11F0472
:1029300004EB8400F04951F8200008B1012000E0C8
:10294000002038B940F6F622AFF2E841AFF2D840A5
:1029500002F0F0F904EB8401E74A02EB81004168E0
:102960004968416000F1080142688A4202D1416829
:10297000496841604168C968E04A116000BF10BD04
:1029800070B5054601F0A1FC15B9DC48006800E00F
:1029900028460446201DFEF7B3FC78B9E06A00EB38
:1029A0008000D54951F8200040B994F82C1001203E
:1029B0008840D04909688143CE480160A06A18B1B7
:1029C00004F11800FEF79CFC211DCD48FEF772FCB7
:1029D00001F09EFCCB48006828B101F076FCFFF7BF
:1029E0001FFC01F095FCC5480068844226D1C5480B
:1029F0000068B8B1BD48006808B9012000E00020B7
:102A000038B940F25762AFF2A451AFF2945002F0DD
:102A100091F94FF08050B4490860BFF34F8FBFF376
:102A20006F8F0BE0B6480068B7490968884203D148
:102A30000020B249086001E0FFF769FF70BD70B582
:102A4000054600262C463DB940F28162AFF2EC51BA
:102A5000AFF2DC5002F06EF9A9496069884201D1F9
:102A6000012000E0002070B1A849A06A884201D18D
:102A7000012000E0002030B9A06A08B9012000E080
:102A8000002000B10126304670BD70B505462C46C9
:102A90003DB940F2AB62AFF23461AFF2246002F0B4
:102AA00049F974B39548006884422AD001F00DFCBE
:102AB0002046FFF7C4FF10B3201DFEF721FC94F859
:102AC0002C10012088408B49096808438949086017
:102AD000E16A01EB8101884A02EB8100211DFEF7CA
:102AE000E9FB8649E06A0968C96A884207D34FF062
:102AF00080507D490860BFF34F8FBFF36F8F01F0A7
:102B000007FC70BD2DE9F0410646002734463EB96A
:102B100040F2E262AFF2B461AFF2A46002F00AF9EF
:102B200001F026FC00BF5021EFF3118081F31188E2
:102B3000BFF34F8FBFF36F8F00BF05462046FFF7EF
:102B40007EFF20B369480068E0B96C49E06A096813
:102B5000C96A884200D30127201DFEF7D1FB94F8F3
:102B60002C100120884063490968084361490860C6
:102B7000E16A01EB8101604A02EB8100211DFEF751
:102B800099FB04E004F118016048FEF793FB00BFD5
:102B900085F3118800BF3846BDE8F08170B523E0A9
:102BA000FFF72BFD5A48006808B9012000E000201B
:102BB0000546FFF777FCBDB901F087FB5448C068B4
:102BC000C468201DFEF79CFB4F480068401E4E491C
:102BD000086050480068401E4E49086001F098FBAC
:102BE0002046FFF732FB00BF4A4800680028D7D1D3
:102BF00070BD00BFFFF7D2FF3F4800680128F9D938
:102C00004FF0805038490860BFF34F8FBFF36F8F8C
:102C1000F0E71CB5404800210B468222CDE90010A8
:102C20003EA14048FFF7CCFA0446012C02D100F047
:102C3000EDFF0446012C15D100BF502080F3118810
:102C4000BFF34F8FBFF36F8F00BF4FF0FF30364998
:102C5000086001202B49086000203449086001F019
:102C6000A2FA0DE0601C08B1012000E0002038B994
:102C700040F28472AFF61401AFF6040002F05AF885
:102C80001CBD10B500BF502080F31188BFF34F8FDB
:102C9000BFF36F8F00BF00201A49086001F004FBEA
:102CA00010BD22490868704770B501F061FB00252E
:102CB0001E480468204670BD13480068704770B510
:102CC000044614B90D48006800E0204605463DB9A9
:102CD00040F68C02AFF67401AFF6640002F02AF8F9
:102CE00005F1340070BD000004ED00E04C00002050
:102CF000380000202C000020F000002014000020EC
:102D0000C003002030000020240000209803002091
:102D1000AC030020200000204800002049444C451E
:102D200000000000F32B00084400002028000020D1
:102D30000246002101E0521C491C1078A528FAD057
:102D4000890888B270472DE9F04107460C46904645
:102D50001E4617B9F748006800E03846054625606A
:102D600005F134006060E86A2061286BE061686CFE
:102D7000A060207B032807D1FFF73FFCA86A08B1B9
:102D800002202073FFF78EFBE86C60610020A061D9
:102D9000052E01D0267303E03846FFF7B5FC2073FB
:102DA000B8F1000F04D0286BFFF7C2FF208401E0C8
:102DB00000202084BDE8F0812DE9F04707460C464D
:102DC00090460026206848B3204641684968416023
:102DD00000F1080142688A4202D1416849684160B5
:102DE0004168D1F80C9000BF2046416849684160B5
:102DF00000F1080142688A4202D141684968416095
:102E00004168CD6806EBC60007EB8001434601220E
:102E10002846FFF798FF761C4D45E5D13046BDE8C2
:102E2000F0872DE9F0410546884616460024202704
:102E3000FFF7E3FBC0480068804539D300BF7F1E21
:102E400007EB8702BD4B03EB820104EBC40205EBE9
:102E500082000122FFF7B0FF0444002FEFD104EB02
:102E6000C40105EB81000222B5490968FFF7A4FF00
:102E7000044404EBC40105EB81000222B149096856
:102E8000FFF79AFF044404EBC40105EB8100042220
:102E9000AD49FFF791FF044404EBC40105EB810049
:102EA0000322AA49FFF788FF04440EB100203060D6
:102EB000FFF7F8FA2046BDE8F08170B504460D46EC
:102EC0003CB940F60632AFF66421AFF6542001F06B
:102ED00031FF9848016818312046FEF7F7F90121C3
:102EE0002846FFF74CFB70BD70B504460D461646EC
:102EF0003CB940F61732AFF69421AFF6842001F0CA
:102F000019FF9348006808B1012000E0002038B99B
:102F100040F61B32AFF6B421AFF6A42001F00AFF51
:102F200045F000408349096888618248016818318A
:102F30002046FEF7BFF901213046FFF720FB70BDA8
:102F400070B505460E4614463DB940F63132AFF62F
:102F5000EC21AFF6DC2001F0EDFE76480168183177
:102F60002846FEF7A7F90CB14FF0FF362146304650
:102F7000FFF705FB70BD70B50646F068C4683CB944
:102F800040F66132AFF62431AFF6143001F0D2FED4
:102F900004F11800FEF7B4F96D480068A8B9201DC7
:102FA000FEF7AEF994F82C100120884069490968B1
:102FB000084368490860E16A01EB81015F4A02EB5E
:102FC0008100211DFEF776F904E004F11801624842
:102FD000FEF770F95749E06A0968C96A884204D95E
:102FE000012501205D49086000E00025284670BDEC
:102FF0002DE9F04105460F465548006808B101200B
:1030000000E0002038B940F69932AFF6A831AFF6AB
:10301000983001F08FFE47F000402860EC683CB922
:1030200040F6A132AFF6C431AFF6B43001F082FE03
:103030002846FEF765F9201DFEF762F994F82C107A
:103040000120884043490968084342490860E16A11
:1030500001EB8101394A02EB8100211DFEF72AF9BB
:103060003449E06A0968C96A884204D90126012006
:103070003A49086000E000263046BDE8F08110B50E
:1030800004463CB940F6C132AFF62841AFF61840CD
:1030900001F050FE324800682060324800686060ED
:1030A00010BD2DE9F04104460D463CB940F6CB3247
:1030B000AFF65041AFF6404001F03CFE3DB940F65E
:1030C000CC32AFF66041AFF6504001F033FE01F074
:1030D000FCF8244807682868401C08B9002619E055
:1030E0001F4920680968884204D06068B84201D846
:1030F00001260FE06068381A2968884209D22868DA
:103100006168791A401A28602046FFF7B8FF002648
:1031100000E0012601F0FCF83046BDE8F081012016
:103120000E4908607047014611B10A46906C00E0F4
:10313000002070471400002024000020F000002030
:10314000180000201C000020AC030020C003002059
:103150004C0000202C0000209803002038000020A4
:103160003C0000202800002008B10246916470470E
:10317000FB4908687047FB49096809B9012005E067
:10318000F949096809B9022000E00020704770B5CC
:1031900005462C46002D4BD0F149E06A0968C96A02
:1031A000884245D2A06900F0004028B9EC48006888
:1031B000C06AC0F12000A061E16A01EB8101EB4A25
:1031C00002EB81016069884201D1012000E000200A
:1031D00050B3201DFEF794F878B9E06A00EB800048
:1031E000E24951F8200040B994F82C1001208840A1
:1031F000DF4909688143DE480160D9480068C06A38
:10320000E06294F82C1001208840D94909680843ED
:10321000D7490860E16A01EB8101D44A02EB8100E1
:10322000211DFEF747F803E0CD480068C06AE06260
:1032300070BD70B505462C460026002D4FD0C848FD
:103240000068844201D1012000E0002038B940F636
:10325000C762AFF6F051AFF6E05001F06BFD206DA4
:1032600038B940F6C962AFF60461AFF6F45001F028
:1032700061FD206D401E2065E16CE06A88422ED021
:10328000206D60BB201DFEF73BF878B9E06A00EBCB
:103290008000B64951F8200040B994F82C10012064
:1032A0008840B34909688143B1480160E06CE0623D
:1032B000E06AC0F12000A06194F82C100120884041
:1032C000AB4909680843AA490860E16A01EB81013A
:1032D000A64A02EB8100211DFDF7ECFF01263046D6
:1032E00070BD70B505460E463146284601F067FAB6
:1032F000284601F05DFA044602E020202855641CAF
:103300000F2CFAD300202855281970BD7FB505462B
:10331000002028709748006803909649096801EBDF
:10332000C101880000F017FE0446002C53D0002293
:1033300020460399FFF775FD03900020029043E0BB
:10334000029800EBC00004EB8000007B012806D04F
:10335000022806D0032806D0042808D105E052260A
:1033600007E0422605E0532603E0442601E000265C
:1033700000BF00BF029800EBC00004EB8000416872
:103380002846FFF7AEFF0546029800EBC00004EBAD
:1033900080008068029901EBC10104EB8101098C76
:1033A000CDE90010029800EBC00004EB800032462B
:1033B00071A10369284601F0CDFC284601F0F8F917
:1033C00005440298401C0290DDE902018842B7D30F
:1033D000204600F043FE7FBD614909688869604965
:1033E0000968C96AC1F120015D4A1268916170479C
:1033F0005B48006830B15A49096801F15000096D15
:10340000491C016056480068704770B506460D4675
:1034100000F05BFF52480068406D88B901205049B8
:10342000096881F858005DB101212846FFF7A7F827
:103430004FF0805054490860BFF34F8FBFF36F8F38
:1034400000F066FF00F041FF45480068446D4CB154
:1034500026B1002042490968486503E0601E4049E2
:103460000968486500203E49096881F8580000F065
:103470004FFF204670BD2DE9F041074688461446AF
:103480001D4600F022FF3648006890F858000228D8
:1034900018D03349096801F15400496DB9430160FE
:1034A00001202F49096881F858005DB101212846A3
:1034B000FFF765F84FF0805033490860BFF34F8F36
:1034C000BFF36F8F00F024FF00F0FFFE1CB1244813
:1034D0000068406D20602248006890F8580001287C
:1034E00001D1002608E01E49096801F15400496D28
:1034F00021EA08010160012600201949096881F8C4
:10350000580000F005FF3046BDE8F0812DE9F04796
:1035100006460D46174698464FF0010A36B941F265
:10352000FD021A4901F1140001F004FC344600F0D8
:10353000CCFEB8F1000F02D0606DC8F8000094F81E
:103540005890022084F85800052F30D2DFE807F0A9
:103550002E0320242600606D2843606527E00000CC
:1035600014000020300000204C000020F00000205B
:103570002C00002024000020092563092575092559
:10358000750925750D0A000004ED00E064240008AB
:10359000606D401C60650AE0656508E0B9F1020FE6
:1035A00001D0656501E04FF0000A00E000BF00BFF8
:1035B000B9F1010F2FD1201DFDF7A2FE94F82C10B8
:1035C000012088409B49096808439A490860E16ADC
:1035D00001EB8101984A02EB8100211DFDF76AFE93
:1035E000A06A08B9012000E0002030B941F235128C
:1035F000924901F1140001F09DFB9149E06A0968CC
:10360000C96A884207D94FF080508E490860BFF3DD
:103610004F8FBFF36F8F00F07BFE5046BDE8F08701
:103620002DE9F84F07460E4690469946DDF828B03A
:103630000120009037B941F26812804901F114006D
:1036400001F078FB00F094FE3C4600BF5021EFF300
:10365000118081F31188BFF34F8FBFF36F8F00BFCD
:103660000546B9F1000F02D0606DC9F8000094F86A
:1036700058A0022084F85800B8F1050F17D2DFE8EF
:1036800008F01503070B0D00606D304360650EE018
:10369000606D401C60650AE0666508E0BAF1020FE3
:1036A00001D0666501E00020009000E000BF00BF8F
:1036B000BAF1010F3AD1A06A08B9012000E0002058
:1036C00030B941F2AF125D4901F1140001F032FB53
:1036D0005D480068A8B9201DFDF712FE94F82C1073
:1036E0000120884053490968084352490860E16A4B
:1036F00001EB8101504A02EB8100211DFDF7DAFD4B
:1037000004E004F118015148FDF7D4FD4C49E06A8A
:103710000968C96A884209D9BBF1000F03D00120AA
:10372000CBF8000002E001204949086000BF85F3A2
:10373000118800BF0098BDE8F88F2DE9F0410546DB
:103740000F4635B941F2E3123C4901F1140001F092
:10375000F1FA00F00DFE2C4600BF5021EFF311806E
:1037600081F31188BFF34F8FBFF36F8F00BF064601
:1037700094F85880022084F85800606D401C606501
:10378000B8F1010F37D1A06A08B9012000E000208C
:1037900030B941F20922294901F1140001F0CAFAB5
:1037A00029480068A8B9201DFDF7AAFD94F82C103F
:1037B000012088401F49096808431E490860E16AE2
:1037C00001EB81011C4A02EB8100211DFDF772FD16
:1037D00004E004F118011D48FDF76CFD1849E06A8A
:1037E0000968C96A884206D917B10120386002E029
:1037F00001201749086000BF86F3118800BFBDE8AB
:10380000F08170B5054615B90D48006800E02846FE
:10381000064600F05AFD96F85800022804D1002010
:1038200086F85800012400E0002400F071FD2046D5
:1038300070BD00002C000020F0000020642400086F
:103840001400002004ED00E04C000020980300204C
:10385000380000202DE9F04104460D4616461F466B
:103860004FF0000865602461B5420CD8F01BA169D7
:10387000884202D34FF0010811E0211DF74800688B
:10388000FDF724FD0BE0BE4204D2BD4202D34FF04F
:10389000010804E0211DF2480068FDF717FD4046CD
:1038A000BDE8F0812DE9FF4704460D4616461F4648
:1038B000DDF830804FF000092CB94FF4D372E9A144
:1038C000EEA001F037FAF148006810B300950196B8
:1038D0000294062D15DAFFF74EFC022808D10023CA
:1038E00042466946E9480068FDF774FE814610E0EB
:1038F00000231A466946E5480068FDF76BFE8146DD
:1039000007E000233A466946E0480068FEF7CCF835
:103910008146484604B0BDE8F0872DE9F8432DE024
:10392000CF480068C0680568CD480068C068C468B2
:10393000201DFDF7E5FC2046616A8847E069012803
:103940001CD1A0694619AE4207D966602461211DC9
:10395000C3480068FDF7BAFC10E0002003462A4681
:10396000014600902046FFF79DFF07462FB940F221
:103970009232BCA1C1A001F0DDF900BFB8480068D7
:10398000006808B9012000E000200028C8D0B44831
:10399000D0F80080B1480068B1490860AF48C0F86D
:1039A0000080BDE8F88370B50446FFF77AF9054654
:1039B000B7480068854204D2FFF7AFFF01202060BE
:1039C00001E000202060B2480560284670BDF0B5D7
:1039D00087B070E0039800280CDA04AE2EB940F2EC
:1039E000E722A0A1A5A001F0A5F9D6E90020B168C1
:1039F000904700BF039800285DDB059C606908B90B
:103A0000012000E0002010B9201DFDF779FC02A87C
:103A1000FFF7C9FF054603980A284AD2DFE800F0FD
:103A20000905072C2E4506082D2F00BF00BF00BF3B
:103A300000BF0498A269811803462A462046FFF772
:103A400009FFC0B12046616A8847E069012812D1A8
:103A5000002000900498A1694218002319462046CE
:103A6000FFF720FF07462FB940F221327DA183A046
:103A700001F060F900BF1DE000BF1BE000BF04982B
:103A8000A061A06908B1012000E0002028B94FF42E
:103A90004E7274A179A001F04DF9A06941192B462D
:103AA0002A462046FFF7D6FE04E0204600F0D6FA6C
:103AB00000E000BF00BF00231A4603A97348006856
:103AC000FDF7CEFE002885D107B0F0BDF8B505465C
:103AD0000F4663480068C068C468201DFDF710FCED
:103AE000E069012818D1A06941192B463A462046C1
:103AF000FFF7B0FE80B1002003462A460146009041
:103B00002046FFF7CFFE06462EB94FF4027255A1AC
:103B10005AA001F00FF900BF2046616A8847F8BD3E
:103B2000F8B505460C46FEF768FD6846FFF73BFF13
:103B30000646009820BB44B9B54206D8FEF7B2FC51
:103B400031462846FFF7C2FF1CE03CB143480068FD
:103B5000006808B9012000E000200446A91B2246A5
:103B60004A480068FEF7F1F9FEF79CFC50B94FF0A7
:103B7000805048490860BFF34F8FBFF36F8F01E05B
:103B8000FEF790FCF8BD0146354A126812680AB982
:103B9000012200E000220A600A6822B9304A126855
:103BA000D268106800E00020704708B500BF684682
:103BB000FFF7E9FF044620460099FFF7B1FFFFF742
:103BC00006FFF4E710B500F080FB30480068D0B97C
:103BD0003148FDF75FFB3148FDF75CFB2E4820497B
:103BE00008602E481D490860002210210520FDF7BD
:103BF000F6FB264908600846006820B128A1234842
:103C00000068FEF77CF900F083FB10BD1CB50024B2
:103C1000FFF7D8FF1D48006858B123481F21002333
:103C20004FF48272CDE9001020A12248FEF7C8FAB5
:103C300004462CB940F233120AA110A001F07AF820
:103C400020461CBD2DE9F04706460D46174698460E
:103C5000DDE908940DB101202FE02DE05400002093
:103C6000500000202E2E5C4672656552544F535C06
:103C700074696D6572732E63000000004572726F87
:103C8000723A25732C25640D0A00000058000020AC
:103C90006000002004ED00E0D4030020E8030020D1
:103CA000546D7251000000005C000020546D7220C1
:103CB00053766300AB3B0008002038B94FF4C6725E
:103CC000AFF26001AFF24C0001F034F85CB1FFF7E5
:103CD00079FF2660A561E761C4F82080C4F82490CC
:103CE000201DFDF7E4FABDE8F0872DE9FC47054605
:103CF0000E4617469846DDF828902C2000F02BF948
:103D000004463CB143463A4631462846CDE9009444
:103D1000FFF798FF2046BDE8FC8710B55B480068B8
:103D200008B1012000E0002038B94FF4E872AFF28A
:103D3000CC01AFF2B80000F0FDFF5448006810BDA0
:103D400070B5044625463CB940F2D912AFF2EC01F9
:103D5000AFF2D80000F0EEFFA86970BD70B5044660
:103D600025463CB940F2E312AFF20811AFF2F4007D
:103D700000F0E0FF6E68304670BD70B50446254621
:103D80003CB940F2ED12AFF22411AFF2101000F086
:103D9000D1FF286870BD70B5044626463CB940F294
:103DA000DA32AFF24011AFF22C1000F0C3FF00F096
:103DB0008CFA706908B9012000E0002080F001054C
:103DC00000F0A6FA284670BD70B5044626463CB9F8
:103DD00040F2EF32AFF27411AFF2601000F0AAFFC0
:103DE00000F073FA356A00F093FA284670BD70B59A
:103DF00004460D4626463CB940F2FF32AFF29C1114
:103E0000AFF2881000F096FF00F05FFA356200F024
:103E10007FFA70BD2DE9FF4104460D4616461F4648
:103E20006FF00100009001940295039600233A463A
:103E3000694617480068FDF737FE8046404604B0E3
:103E4000BDE8F0812DE9FF4104460D4616461F46A8
:103E50000F48006838B940F22B42AFF2F811AFF2C8
:103E6000E41000F067FF4FF0FF30009001940295DE
:103E7000039600233A46694605480068FDF7AAFB09
:103E80008046404604B0BDE8F08100005C000020A0
:103E90005800002010B50146924800E00068036811
:103EA0008B42FBD30246436813448B4204D14368E0
:103EB0004C682344436001460A464B681344046837
:103EC000A34211D1884C03682468A34208D04B68F0
:103ED0000468646823444B6003681B680B6005E05A
:103EE000814B1B680B6001E003680B60884200D0C7
:103EF000016010BD30B54FF4A0437C4800F00704CA
:103F00002CB1C01D20F00700784C041B1B1B02467F
:103F1000744C22600024734D6C60D018083820F077
:103F20000700714C206000246F4D2D686C606E4D51
:103F30002D682C601146441A4C606B4C24680C6050
:103F40006B4D4C682C606B4D4C682C604FF00044FE
:103F5000694D2C6030BD2DE9F04104464FF000085A
:103F6000FEF74BFB6048006808B9FFF7C3FF6248E3
:103F70000068204000285FD1A4B1083404F0070095
:103F800080B104F00700C0F10800044404F0070009
:103F900008B9012000E0002020B9BF2257A161A08C
:103FA00000F0C8FE002C47D052480068844243D835
:103FB0004C4E3046056801E02E462D686868A042E8
:103FC00002D228680028F7D147480068854233D0DC
:103FD000306800F10808286830606868001B102805
:103FE00013D92F1907F0070008B9012000E00020BD
:103FF00020B9EC2241A14BA000F09CFE6868001B98
:1040000078606C603846FFF745FF3A496868096890
:10401000081A384908600846006835490968884226
:1040200003D2344800683249086033496868096837
:104030000843686000202860FEF734FA08F00700A3
:1040400008B9012000E0002028B94FF496722BA196
:1040500034A000F06FFE4046BDE8F08170B5064622
:104060003546002E35D0083D2C4623496068096846
:10407000084008B1012000E0002028B94FF4A072E8
:104080001EA128A000F056FE206808B9012000E01B
:10409000002028B940F2411218A122A000F04AFEE7
:1040A000154960680968084098B1206888B91249C4
:1040B0006068096888436060FEF79FFA0D49606890
:1040C000096808440B4908602046FFF7E3FEFEF745
:1040D000E9F970BD074800687047054800687047F7
:1040E00070470000640000206C000020FC030020EA
:1040F0007400002070000020780000202E2E5C4606
:1041000072656552544F535C706F727461626C6576
:104110005C4D656D4D616E675C686561705F342EE6
:10412000630000004572726F723A25732C25640D8E
:104130000A000000A4480068401C08B9012000E003
:10414000002028B940F20F12A0A1ABA000F0F2FDB0
:1041500000BF502080F31188BFF34F8FBFF36F8FE4
:1041600000BF00BFFEE7001F4FF080730360001F19
:1041700021F001030360001FA34B036014380260A9
:10418000001F6FF002030360203870479F480068EB
:104190004FF47A71B0FBF1F0401E4FF0E02148611E
:1041A0000720086170471CB5994800689949884202
:1041B00001D0012000E0002028B940F2591283A16B
:1041C0008DA000F0B7FD924800689249491E8842D0
:1041D00001D0012000E0002028B94FF4AD727BA18E
:1041E00085A000F0A7FD8C4C204600780190FF20B0
:1041F000214608700846007800909DF8000000F005
:10420000F0009DF80010884201D1012000E000205C
:1042100028B940F273126DA177A000F08BFD9DF8D4
:10422000000000F050007D49087007207C490860BC
:1042300009E07B480068401E794908609DF800004D
:104240004006000E00909DF8000000F080008028DD
:10425000EFD0734800680002714908600846008882
:1042600000F4E06008606C490198087068482030EC
:10427000006840F470006649203108600846006814
:1042800040F070400860FFF781FF00204E49086051
:10429000FBF7A4FF6348006840F0404061490860B4
:1042A000FBF78CFF00201CBD10B547480068B0F537
:1042B0007A7F01D1012000E0002028B940F2A91244
:1042C00042A14DA000F036FD10BD10B500BF50203A
:1042D00080F31188BFF34F8FBFF36F8F00BF3A4851
:1042E0000068401C384908600846006801280ED163
:1042F0004748001D0068C0B208B9012000E0002056
:1043000028B940F2B91231A13BA000F013FD10BD55
:1043100010B52D48006828B94FF4E0722BA136A0E3
:1043200000F008FD28480068401E2749086008463C
:10433000006820B9002080F3118800BF00BF10BDC5
:1043400010B500BF502080F31188BFF34F8FBFF32B
:104350006F8F00BFFDF7E2FF20B14FF080502C4976
:10436000091D086000BF002080F3118800BF10BD48
:1043700070B5FBF76BFF0546102D11D305F1E0205A
:1043800090F8F04325480078844201DB012000E0EA
:10439000002028B94FF440720CA117A000F0CAFC0D
:1043A0001B480C30006800F4E0601D490968884231
:1043B00001D8012000E0002028B94FF4447203A185
:1043C0000DA000F0B7FC70BD7C0000202E2E5C46D6
:1043D00072656552544F535C706F727461626C65A4
:1043E0005C525644535C41524D5F434D34465C70C1
:1043F0006F72742E630000004572726F723A2573FB
:104400002C25640D0A0000003541000898000020AA
:1044100000ED00E071C20F4100E400E080000020E8
:104420008400002034EF00E02DED028B15E03048D1
:1044300090ED000ADFED2F0A30EE200A80ED000A31
:10444000006800F0C5F941EC180B53EC182B2AA0BA
:1044500000F070FCC820FEF731F9E8E708E02C48CE
:10446000006880F001002A490860C820FEF726F99C
:10447000F5E71CB50446FFF728FF26480221002374
:104480003222CDE9001024A1AFF22F00FDF798FEF3
:104490002448042100238022CDE9001022A1AFF29C
:1044A0007700FDF78DFE23480068FDF7D7FEFFF784
:1044B0002FFF1CBD1CB54FF44070FBF7DDFE4FF421
:1044C000E130FCF761FEA820FCF7F0FDFCF7C4FE2C
:1044D0001848012100238022CDE9001016A1AFF277
:1044E0006D00FDF76DFEFEF794FB00BFFEE70000D8
:1044F000940000200AD7233C0A0D20666C6F61747B
:104500005F6E756D3A20252E3266200D0A00000080
:10451000140402408C0000206C6564305F74617389
:104520006B00000090000020666C6F61745F746126
:10453000736B00008800002073746172745F746193
:10454000736B0000704700BFFEE700BFFEE700BFCF
:10455000FEE700BFFEE770470CB500200190009019
:104560007648006840F480307449086000BF7348A2
:10457000006800F4003000900198401C0190009801
:1045800018B90198B0F5A04FF1D16C48006800F45B
:10459000003010B10120009001E000200090009850
:1045A000012846D165484030006840F0805063499A
:1045B000403108606248006840F44040604908604B
:1045C0005E48083000685D490831086008460068A8
:1045D00040F4004008600846006840F4A0500860BD
:1045E0005848091F0860081F006840F08070091FC4
:1045F000086000BF5148006800F000700028F9D042
:1046000040F20570504908604C480830006820F0BE
:1046100003004A49083108600846006840F002007B
:10462000086000BF45480830006800F00C0008280A
:10463000F8D10CBD10B54548006840F470004349FE
:1046400008603E48006840F001003C4908600020D6
:104650003A4908310860394800683D4908403749FF
:1046600008603C48091D0860081F006820F480208D
:10467000091F0860002031490C310860FFF76CFF0A
:104680004FF0006031498039086010BD70B50020DE
:104690000022022300240221284D08352D6805F050
:1046A0000C0020B1042806D0082834D107E02A4D98
:1046B0002A4E356033E02A4D284E35602FE01F4DDD
:1046C0002D1D2D68C5F380541C4D2D1D2D6805F042
:1046D0003F0154B1224DB5FBF1F5184E361D366839
:1046E000C6F3881605FB06F209E01B4DB5FBF1F594
:1046F000124E361D3668C6F3881605FB06F20F4DBE
:104700002D1D2D68C5F301456D1C6B00B2FBF3F543
:10471000124E356003E0104D104E356000BF00BFF3
:10472000064D08352D68C5F303150E4E705D0B4D13
:104730002D68C540094E356070BD0000003802404C
:104740000070004008544007003C024088ED00E043
:10475000FFFFF6FE103000240024F4009800002033
:1047600000127A009C00002040EA01039B0703D05E
:1047700009E008C9121F08C0042AFAD203E011F8A0
:10478000013B00F8013B521EF9D27047D2B201E062
:1047900000F8012B491EFBD270470022F6E710B546
:1047A00013460A4604461946FFF7F0FF204610BD9F
:1047B000421C10F8011B0029FBD1801A70470346E8
:1047C00011F8012B00F8012B002AF9D11846704787
:1047D00000F0004230F000400AD0C10D01F56071D8
:1047E000C0F3160042EA0151C20840071143704766
:1047F00000200146704730B50B46014600202022BC
:10480000012409E021FA02F59D4205D303FA02F5DD
:10481000491B04FA02F52844151EA2F10102F1DC3D
:1048200030BD2DE9F05F0546002092469B46884644
:104830000646814640241BE028464146474622461C
:1048400000F0F9F953465A46C01A914110D3114667
:104850001846224600F0E0F92D1A67EB01084F4692
:1048600022460120002100F0D7F917EB00094E4144
:10487000201EA4F10104DFDC484631462A464346A7
:10488000BDE8F09F2DE9FE4F804681EA0300C00F8E
:104890000C46009021F0004123F00045B8EB0200E7
:1048A000A94105D24046214690461C460B46024689
:1048B00023F00040104347D0270DC7F30A00C3F38D
:1048C0000A510290401A019040286BDAC3F313009A
:1048D00040F4801B0098924620B10023D2EB030ADB
:1048E00063EB0B0B01985946C0F14002504600F0B3
:1048F00093F906460D4650465946019A00F0ABF929
:1049000010EB08006141002487EA115284EAE77342
:104910001A4340D0009A62B3019A012A4FEA075223
:1049200015DC001B61EB02014FF0004202EA075266
:10493000CDE90042001C41F5801132462B4600F0C3
:10494000ABF903B0BDE8F08F40462146F9E7001B04
:1049500061EB0201001C41F5801300185B41201837
:10496000A2F5001747EB030140EAD570B6196D4177
:1049700011E06D084FEA360645EAC0754FEA075266
:10498000001B61EB0201001C41F5801149084FEA50
:1049900030000019514132462B4603B0BDE8F04FBC
:1049A00000F06BB90098012240000023D0EB020216
:1049B00063EBE073009821464FEAE074B8EB000027
:1049C00061EB0401E9E783F000435BE781F000411C
:1049D00058E72DE9FE4F81EA030404F0004421F07A
:1049E000004100944FF0000B23F0004350EA010413
:1049F0005ED052EA03045BD0C3F30A54C1F30A55F4
:104A00002C44A4F2F3340194A0FB0254C1F313012B
:104A100041F48011C3F3130343F4801301FB0244F8
:104A200000FB034E840A970A44EA815447EA8357FD
:104A3000A4FB076802958D0A05FB07854FEA932CB6
:104A400004FB0C542705029D4FEA065847EA163727
:104A5000B5EB08056EEB070C870E920E47EA81173F
:104A600042EA8312A7FB0201B6EB0B0164EB0004E0
:104A70002B0D43EA0C335E1844EB1C50DA465146CA
:104A8000E7FB0201C5F313044FEA0B3343EA145367
:104A90004FEA0432019C43EA0603A4F10C04029499
:104AA000009CCDE900B400F0F7F803B0BDE8F08F4A
:104AB00000200146F9E72DE9F04D81EA030404F0F6
:104AC000004B21F0004514464FF0000A23F000414E
:104AD00050EA050220D054EA01021DD0C5F30A575E
:104AE0000246C5F31303C1F31300C1F30A5640F4A1
:104AF000801543F48013A7EB0608101BD64608F276
:104B0000FD3873EB050002D308F1010801E09218AB
:104B10005B41B8F1000F03DA00200146BDE8F08DDB
:104B200000204FF48011064684460EE0171B73EBFD
:104B3000050705D3121B63EB050306434CEA010C82
:104B400049084FEA300092185B4150EA0107EDD165
:104B500052EA030012D082EA040083EA0501084306
:104B600005D0101BAB4106D20122002306E0002233
:104B70004FF0004302E06FF0010253101AEB060001
:104B80004CEB085110EB0A0041EB0B01BDE8F04D76
:104B900000F073B8C1F30A52C1F3130140F2FF33BE
:104BA00041F480119A4202DA00200146704740F237
:104BB00033439A42A2F2334202DC524200F03BB845
:104BC00000F02AB830B5041E71F1000404DB4FF088
:104BD0000044404264EB0101141E73F1000405DB44
:104BE0001C464FF00043524263EB0403994208BF56
:104BF000904230BD064C074D06E0E06840F00103EE
:104C000094E8070098471034AC42F6D3FBF7C0FA9B
:104C10005856000878560008202A04DB203A00FA8B
:104C200002F1002070479140C2F1200320FA03F303
:104C3000194390407047202A04DB203A21FA02F001
:104C40000021704721FA02F3D040C2F120029140C6
:104C5000084319467047202A06DBCB17203A41FA51
:104C600002F043EAE07306E041FA02F3D040C2F1F9
:104C70002002914008431946704710B5141E73F185
:104C8000000408DA401C41F1000192185B411A430C
:104C900001D120F0010010BD2DE9F04D92469B4658
:104CA00011B1B1FA81F202E0B0FA80F220329046FE
:104CB000FFF7B2FF04460F4640EA0A0041EA0B0143
:104CC00053465A46084313D0114653EA010019D0FF
:104CD000C8F140025046FFF7AEFF05460E4650466B
:104CE00059464246FFF798FF084305D0012004E0EB
:104CF00020463946BDE8F08D0020054346EAE076BF
:104D00002C4337430A986305E40AA0EB080000220D
:104D1000FD0A44EA47540A3002D500200146E9E77B
:104D2000010510196941DDE9084500196941BDE82F
:104D3000F04DA2E70FB4054B10B503A9044A029841
:104D400000F0EEF810BC5DF814FB0000151200082E
:104D5000AC0000200FB4084B10B504A902AA0398B8
:104D600000F0DEF8044602A9002000F070FC2046A6
:104D700010BC5DF814FB00004F56000802E008C8A4
:104D8000121F08C1002AFAD170477047002001E0C5
:104D900001C1121F002AFBD1704700002DE9FF5FFF
:104DA00082B00021DDE90430020DDDF840B003439C
:104DB00018D044F61050A2F2FF3242431514119855
:104DC00001281FD0A5EB0B00401C5FEA000A4FF042
:104DD00000064E4FDFF83891B046504615D5CAF15F
:104DE000000413E0119801244AA3012801D16FEABD
:104DF0000B010298119AC0E90031C0E9024206B0E5
:104E0000BDE8F09FCBF10000DFE704460021404AF7
:104E1000491842EB0450CDE9001012E0E00707D03A
:104E200032463B4640464946FFF7D3FD8046894619
:104E300032463B4610461946FFF7CBFD06460F4665
:104E40006410002CEAD1DDE90401DDE90023BAF1A8
:104E5000000F06DAFFF7BDFD42464B46FFF7B9FDEE
:104E600005E0FFF728FE42464B46FFF724FE0446C6
:104E70000E460022284BFFF7A5FE03D84FF0FF3067
:104E8000014607E00022254B20463146FFF7FAFC99
:104E9000FFF780FE102409E0002C0ADB0A22002321
:104EA000FFF7BFFC039B30321A55641E50EA010223
:104EB000F2D1641C039AC4F111031444119A012A1B
:104EC00003D0012208430DD10AE0084304D000209A
:104ED0004FF0110B119072E7A3EB0B056D1E0DE067
:104EE0005B4504DD4FF0000205F1010504E003DA43
:104EF0004FF00002A5F10105002AECD002981199AB
:104F0000C0E90231C0E9004579E700000000144023
:104F10000000F03F300000000000F0430000E03FE0
:104F20002DE9FF4F95B09B468946064600250FE2C6
:104F3000252877D100242746F84A0121059400E06E
:104F4000044316F8013F203B01FA03F01042F7D169
:104F500030782A2811D06FF02F033078A0F130027A
:104F6000092A16D8059A44F0020402EB820203EBE8
:104F700042021044761C0590EFE759F8042B059285
:104F8000002A03DA504244F40054059044F002042D
:104F9000761C30782E2816D116F8010F44F0040440
:104FA0002A280DD06FF02F023078A0F13003092BA2
:104FB00009D807EB870302EB4303C718761CF3E716
:104FC00059F8047B761C30786C280FD006DC4C280E
:104FD00017D068280DD06A2814D104E0742810D0A6
:104FE0007A280FD10DE044F400140AE044F4801450
:104FF00001E044F440147278824202D104F5801436
:10500000761C761C307866280BD013DC582877D0B5
:1050100009DC002875D04528F6D04628F4D047286A
:105020001AD19DE118E0632835D0642879D065282D
:1050300012D195E1702873D008DC6728F1D0692877
:105040006FD06E280DD06F2806D1B5E073282CD014
:10505000752875D0782874D05A46179990476D1CDA
:1050600075E1C4F30250022809D003280DD0D9F805
:10507000001004280DD00D6009F1040967E1D9F88A
:105080000010EA17C1E90052F6E7D9F800100D80C8
:10509000F2E70D70F0E719F8041B8DF800100020FE
:1050A0008DF80100EA46012003E059F804AB4FF007
:1050B000FF3061074FF0000102D40DE008F101015B
:1050C0008846B9420FDA8045F8DB1AF80810002943
:1050D000F4D108E008F1010188468142FADB1AF8B0
:1050E00008100029F6D105985B46A0EB0807214679
:1050F0003846179A00F094FA284400EB080507E0B8
:105100004DE029E10DE01AF8010B5A461799904736
:10511000B8F10108F7D25B4621463846179A13E1E9
:1051200042E00A220092C4F302524FF0000A022A1F
:1051300008D059F804CB032A4FEAEC710AD00DE0ED
:1051400029E02AE009F1070121F00702F2E802C193
:10515000914609E00FFA8CFC4FEAEC71042A03D166
:105160004FFA8CFC4FEAEC71002907DA0A4600215D
:10517000DCF1000C61EB02012D2202E0220504D5D6
:105180002B228DF80420012203E0E20701D0202227
:10519000F7E7904659E00A2102E010220DE01021C5
:1051A0004FF0000A00910BE010224FF0000A44F08B
:1051B00004040827009203E008224FF0000A00923E
:1051C000C4F30252022A05D059F804CB0021032A65
:1051D00008D009E009F1070121F00702F2E802C155
:1051E000914605E01FFA8CFC042A01D10CF0FF0C5B
:1051F0004FF00008220728D5702806D0009B83F0C6
:10520000100353EA0A0305D00EE040228DF8042073
:10521000012208E05CEA010206D030228DF8042069
:105220008DF8050002229046009B83F0080353EAA4
:105230000A030AD15CEA010201D1620705D53022D6
:105240008DF804204FF001087F1E582804D034A0A8
:1052500003900EA802900DE036A0F9E75346604691
:10526000009AFFF7DEFA84460398825C0298401E9B
:10527000029002705CEA0100F0D1029806A9081AB7
:1052800000F1200A600702D524F4803400E00127F1
:10529000574502DDA7EB0A0000E0002000EB0A0101
:1052A000009005984144401A0590E00306D45B46FF
:1052B0002146179A059800F0B3F90544002706E047
:1052C00001A85A46C05D179990476D1C7F1C474541
:1052D000F6DBE0030CD55B462146179A059800F0F3
:1052E0009FF9054404E030205A46179990476D1CF9
:1052F0000099481E00900029F5DC08E00298029908
:105300005A460078491C0291179990476D1CBAF1D2
:105310000001AAF1010AF1DC65E1000009280100A1
:10532000303132333435363738396162636465661B
:1053300000000000303132333435363738394142DD
:10534000434445460000000000F058F90544761C2F
:10535000307800287FF4ECAD19B02846BDE8F08F16
:10536000620700D4062709F1070222F0070CFCE8C7
:105370000223E14603F000485FEA080C02D00FF276
:10538000702C0DE05FEA045C02D50FF2682C07E098
:105390005FEAC47C02D00FF2602C01E0AFF2700C27
:1053A0004FF0FF3823F00043CDF850C065280CD0F3
:1053B00006DC452809D046281DD047283DD13DE0D0
:1053C000662818D067287ED138E00021112F01DB34
:1053D000112000E0781CCDE9000106A90EA8FFF716
:1053E000DDFCDDE90F010E9A03910021009207F127
:1053F000010A04914DE04FF000400097CDE9011003
:1054000006A90EA8FFF7CAFCDDE90F0203920E9B66
:1054100011990022DDF80CA00093049211B9791CB7
:1054200000EB010AB7EB0A0004D4C0F1FF3007F12A
:10543000010A0490AAEB0700019044E0012F00DA72
:1054400001270021112F01DD112000E03846CDE9B0
:10545000000106A90EA8FFF7A1FCDDE90F010E9AD5
:105460000391002104910092BA4621070CD40399BC
:10547000514500DA8A46BAF1010F05DD009AAAF11A
:105480000101515C302908D0B84202DA10F1040F52
:1054900006DA0121CDE9011015E0AAF10101E9E7E1
:1054A000002805DC049901440491AAEB000102E004
:1054B000411C514500DD8A460499401A401C019068
:1054C0004FF000400290200704D40198504501DBC2
:1054D000CDF8048000208DF84F0002980DF14F07A1
:1054E000B0F1004F25D02B200E9002984FF002080B
:1054F00000280CDA404202902D200E9007E00A218D
:105500000298FFF778F93031029007F8011DB8F1E1
:105510000001A8F10108F2DC02980028EFD1791E01
:105520000E980870307800F0200040F0450007F831
:10553000020D12A8C01B00F107081498007800B1F2
:10554000012000EB0A01019801EBE071059841444C
:10555000401A401E0590E00306D45B462146179A88
:10556000059800F05DF805441498007818B15A4683
:10557000179990476D1CE00324D55B462146179A86
:10558000059800F04DF805441CE00498002807DB5E
:10559000DDE90301884203DD0098405C179901E0D2
:1055A000179930205A469047049805F10105401C90
:1055B00004900198401E019004D12E205A4617995C
:1055C00090476D1CBAF10001AAF1010ADDDC05E08B
:1055D00017F8010B5A46179990476D1CB8F1000156
:1055E000A8F10108F4DC5B462146179A0598ABE662
:1055F0002D0000002B000000200000002DE9F041EC
:10560000044600251E461746880404D405E03946A2
:105610002020B0476D1C641EF9D52846BDE8F081F6
:105620002DE9F041044600251E469046C80301D5E9
:10563000302700E02027880404D505E0414638469D
:10564000B0476D1C641EF9D52846BDE8F0810A6894
:10565000531C0B6010707047785600080000002043
:10566000B00000007C4D000828570008B000002062
:10567000505700008C4D0008000000000102030498
:1056800001020304060708090000000000000000F2
:10569000000000000000000000000000000000000A
:1056A00000000000000000000000000000000000FA
:1056B00000000000000000000000000000000000EA
:1056C00000000000000000000000000000000000DA
:1056D00000000000000000000000000000000000CA
:1056E00000000000000000000000000000000000BA
:1056F00000000000AAAAAAAA000000000000000002
:105700000000000000000000000000000000000099
:10571000007A030A000000000000000001020304F8
:08572000060708090000000063
:040000050800018965
:00000001FF
